{
  "contractName": "TenancyAgreement",
  "abi": [
    {
      "inputs": [
        {
          "name": "_maker",
          "type": "address"
        }
      ],
      "payable": false,
      "stateMutability": "nonpayable",
      "type": "constructor"
    },
    {
      "constant": false,
      "inputs": [
        {
          "name": "_landlords",
          "type": "address[]"
        }
      ],
      "name": "setLandlords",
      "outputs": [],
      "payable": false,
      "stateMutability": "nonpayable",
      "type": "function"
    },
    {
      "constant": false,
      "inputs": [
        {
          "name": "_tenants",
          "type": "address[]"
        }
      ],
      "name": "setTenants",
      "outputs": [],
      "payable": false,
      "stateMutability": "nonpayable",
      "type": "function"
    },
    {
      "constant": false,
      "inputs": [
        {
          "name": "_agent",
          "type": "address"
        }
      ],
      "name": "setAgent",
      "outputs": [],
      "payable": false,
      "stateMutability": "nonpayable",
      "type": "function"
    },
    {
      "constant": false,
      "inputs": [],
      "name": "enableAgent",
      "outputs": [],
      "payable": false,
      "stateMutability": "nonpayable",
      "type": "function"
    }
  ],
  "bytecode": "0x60806040526000600360146101000a81548160ff02191690831515021790555034801561002b57600080fd5b506040516020806106fb83398101806040528101908080519060200190929190505050806000806101000a81548173ffffffffffffffffffffffffffffffffffffffff021916908373ffffffffffffffffffffffffffffffffffffffff1602179055505061065d8061009e6000396000f300608060405260043610610062576000357c0100000000000000000000000000000000000000000000000000000000900463ffffffff168063290adf4f146100675780636e498646146100cd578063bcf685ed14610133578063f8e9210c14610176575b600080fd5b34801561007357600080fd5b506100cb6004803603810190808035906020019082018035906020019080806020026020016040519081016040528093929190818152602001838360200280828437820191505050505050919291929050505061018d565b005b3480156100d957600080fd5b506101316004803603810190808035906020019082018035906020019080806020026020016040519081016040528093929190818152602001838360200280828437820191505050505050919291929050505061026b565b005b34801561013f57600080fd5b50610174600480360381019080803573ffffffffffffffffffffffffffffffffffffffff169060200190929190505050610349565b005b34801561018257600080fd5b5061018b61046a565b005b6000809054906101000a900473ffffffffffffffffffffffffffffffffffffffff1673ffffffffffffffffffffffffffffffffffffffff163373ffffffffffffffffffffffffffffffffffffffff16141515610251576040517f08c379a000000000000000000000000000000000000000000000000000000000815260040180806020018281038252601a8152602001807f4f6e6c792073656c6c65722063616e2063616c6c20746869732e00000000000081525060200191505060405180910390fd5b8060029080519060200190610267929190610564565b5050565b6000809054906101000a900473ffffffffffffffffffffffffffffffffffffffff1673ffffffffffffffffffffffffffffffffffffffff163373ffffffffffffffffffffffffffffffffffffffff1614151561032f576040517f08c379a000000000000000000000000000000000000000000000000000000000815260040180806020018281038252601a8152602001807f4f6e6c792073656c6c65722063616e2063616c6c20746869732e00000000000081525060200191505060405180910390fd5b8060019080519060200190610345929190610564565b5050565b6002600081548110151561035957fe5b9060005260206000200160009054906101000a900473ffffffffffffffffffffffffffffffffffffffff1673ffffffffffffffffffffffffffffffffffffffff163373ffffffffffffffffffffffffffffffffffffffff16141515610426576040517f08c379a000000000000000000000000000000000000000000000000000000000815260040180806020018281038252601a8152602001807f4f6e6c792073656c6c65722063616e2063616c6c20746869732e00000000000081525060200191505060405180910390fd5b80600360006101000a81548173ffffffffffffffffffffffffffffffffffffffff021916908373ffffffffffffffffffffffffffffffffffffffff16021790555050565b6002600081548110151561047a57fe5b9060005260206000200160009054906101000a900473ffffffffffffffffffffffffffffffffffffffff1673ffffffffffffffffffffffffffffffffffffffff163373ffffffffffffffffffffffffffffffffffffffff16141515610547576040517f08c379a000000000000000000000000000000000000000000000000000000000815260040180806020018281038252601a8152602001807f4f6e6c792073656c6c65722063616e2063616c6c20746869732e00000000000081525060200191505060405180910390fd5b6001600360146101000a81548160ff021916908315150217905550565b8280548282559060005260206000209081019282156105dd579160200282015b828111156105dc5782518260006101000a81548173ffffffffffffffffffffffffffffffffffffffff021916908373ffffffffffffffffffffffffffffffffffffffff16021790555091602001919060010190610584565b5b5090506105ea91906105ee565b5090565b61062e91905b8082111561062a57600081816101000a81549073ffffffffffffffffffffffffffffffffffffffff0219169055506001016105f4565b5090565b905600a165627a7a72305820606d561440cb581740571fe8002f0760cc24dfb23221e02b95e91d17bbca95220029",
  "source": "pragma solidity ^0.4.22;\r\n\r\ncontract TenancyAgreement {\r\n\r\n    // maker\r\n    address maker;\r\n    // List of tenants and list of landlords\r\n    address[] tenants;\r\n\r\n    // Landlord address\r\n    address[] landlords;\r\n\r\n    address agent;\r\n\r\n    bool agentEnabled = false;\r\n\r\n    struct Property {\r\n        uint id;\r\n        string location;\r\n\r\n    }\r\n\r\n    Property property;\r\n\r\n    struct DigitalContract {\r\n        // Start day of contract\r\n        uint start_date;\r\n        // end date of contract\r\n        uint end_date;\r\n        // total price of contract\r\n        uint price;\r\n    }\r\n\r\n    DigitalContract digitalContract;\r\n\r\n    modifier onlyLandlords() { // Modifier\r\n        require(\r\n            msg.sender == landlords[0],\r\n            \"Only seller can call this.\"\r\n        );\r\n        _;\r\n    }\r\n\r\n    modifier onlyMaker() { // Modifier\r\n        require(\r\n            msg.sender == maker,\r\n            \"Only seller can call this.\"\r\n        );\r\n        _;\r\n    }\r\n\r\n    constructor(address  _maker) public {\r\n        maker = _maker;\r\n    }\r\n\r\n\r\n    function setLandlords(address[] _landlords) public  onlyMaker{\r\n        landlords = _landlords;\r\n    }\r\n\r\n    function setTenants(address[] _tenants) public  onlyMaker {\r\n        tenants = _tenants;\r\n    }\r\n\r\n    function setAgent(address _agent) public  onlyLandlords{\r\n        agent = _agent;\r\n\r\n    }\r\n\r\n    function enableAgent() public onlyLandlords {\r\n        agentEnabled = true;\r\n    }\r\n\r\n}",
  "sourcePath": "D:\\xampp7\\htdocs\\ShuraFrameworks\\LaravelPackages\\contract\\src\\SolidityContracts\\contracts\\TenancyAgreement.sol",
  "compiler": {
    "name": "solc",
    "version": "0.4.24+commit.e67f0147.Emscripten.clang"
  },
  "schemaVersion": "2.0.1",
  "updatedAt": "2018-07-19T09:55:02.183Z"
}